:1008860020204649524520414C45525420200053D1
:10089600595354454D0046495245204F43435552FE
:0308A600454400C6
:10080000C2B0C2901208A97BFF7A087986120863E9
:100810007FC01208D17BFF7A08799512086312080D
:10082000C23090E07F011208D17BFF7A08799C12D8
:060830000863D2B080CE87
:1008A9007F381208D17F011208D17F101208D17F39
:0908B9000C1208D17F800208D165
:0E08D1008FA0C291C292D2931208C2C293228B
:0E08DF008FA0D291C292D2931208C2C293226D
:060863008B088A09890AD6
:10086900E4F50BAB08AA09A90A850B827583001266
:0C0879000836FF60071208DF050B80E75F
:010885002250
:0E08C200E4FFFE0FBF00010EBE27F8BF10F5C9
:0108D0002205
:030000000208ED06
:0C08ED00787FE4F6D8FD75810B0208004E
:10083600BB010CE58229F582E5833AF583E0225077
:1008460006E92582F8E622BBFE06E92582F8E222C1
:0D085600E58229F582E5833AF583E49322DB
:00000001FF
